:020000040800F2
:1000000000500020C5280008052500080B25000821
:1000100011250008172500081D2500080000000014
:100020000000000000000000000000002325000880
:100030002F250008000000003B2500084725000888
:100040000D2900080D2900080D2900080D290008B8
:100050000D2900080D2900080D2900080D290008A8
:100060000D2900080D2900080D2900085525000854
:100070000D2900080D2900080D2900080D29000888
:100080000D2900080D290008692500080D29000820
:100090000D2900080D2900080D2900087D250008FC
:1000A0000D2900080D2900080D2900080D29000858
:1000B0000D2900080D2900088D2500080D290008CC
:1000C0000D2900080D2900080D290008A1250008A8
:1000D0000D290008B52500080D2900080D29000884
:1000E000C92500080D2900080D290008000000009E
:1000F0000000000000000000000000000000000000
:0C01000000000000000000005FF808F1A3
:10010C0010B5054C237833B9044B13B10448AFF345
:10011C0000800123237010BD24000020000000008B
:10012C00A468000808B5034B1BB103490348AFF39F
:10013C00008008BD0000000028000020A468000812
:10014C0081F0004102E000BF83F0004330B54FEA7C
:10015C0041044FEA430594EA050F08BF90EA020FE9
:10016C001FBF54EA000C55EA020C7FEA645C7FEA7C
:10017C00655C00F0E2804FEA5454D4EB5555B8BF9F
:10018C006D420CDD2C4480EA020281EA030382EA10
:10019C00000083EA010180EA020281EA0303362DA2
:1001AC0088BF30BD11F0004F4FEA01314FF4801C75
:1001BC004CEA113102D0404261EB410113F0004F87
:1001CC004FEA03334CEA133302D0524263EB43033E
:1001DC0094EA050F00F0A780A4F10104D5F1200EDC
:1001EC000DDB02FA0EFC22FA05F2801841F1000137
:1001FC0003FA0EF2801843FA05F359410EE0A5F10B
:10020C0020050EF1200E012A03FA0EFC28BF4CF03B
:10021C00020C43FA05F3C01851EBE37101F00045F1
:10022C0007D54FF0000EDCF1000C7EEB00006EEBFE
:10023C000101B1F5801F1BD3B1F5001F0CD3490888
:10024C005FEA30004FEA3C0C04F101044FEA4452DF
:10025C0012F5800F80F09A80BCF1004F08BF5FEA66
:10026C00500C50F1000041EB045141EA050130BD46
:10027C005FEA4C0C404141EB0101013C28BFB1F558
:10028C00801FE9D291F0000F04BF01460020B1FAA3
:10029C0081F308BF2033A3F10B03B3F120020CDA76
:1002AC000C3208DD02F1140CC2F10C0201FA0CF054
:1002BC0021FA02F10CE002F11402D8BFC2F1200CB9
:1002CC0001FA02F120FA0CFCDCBF41EA0C0190406F
:1002DC00E41AA2BF01EB0451294330BD6FEA0404B8
:1002EC001F3C1CDA0C340EDC04F11404C4F12002A3
:1002FC0020FA04F001FA02F340EA030021FA04F3B5
:10030C0045EA030130BDC4F10C04C4F1200220FA0B
:10031C0002F001FA04F340EA0300294630BD21FA49
:10032C0004F0294630BD94F0000F83F4801306BF0F
:10033C0081F480110134013D4EE77FEA645C18BF03
:10034C007FEA655C29D094EA050F08BF90EA020F9A
:10035C0005D054EA000C04BF1946104630BD91EA92
:10036C00030F1EBF0021002030BD5FEA545C05D195
:10037C004000494128BF41F0004130BD14F58004D4
:10038C003CBF01F5801130BD01F0004545F0FE4148
:10039C0041F470014FF0000030BD7FEA645C1ABF7D
:1003AC00194610467FEA655C1CBF0B46024650EAB4
:1003BC00013406BF52EA033591EA030F41F40021E0
:1003CC0030BD00BF90F0000F04BF0021704730B566
:1003DC004FF4806404F132044FF000054FF000013B
:1003EC0050E700BF90F0000F04BF0021704730B5FC
:1003FC004FF4806404F1320410F0004548BF4042D1
:10040C004FF000013EE700BF42004FEAE2014FEA25
:10041C0031014FEA02701FBF12F07F4393F07F4F00
:10042C0081F06051704732F07F4208BF704793F003
:10043C007F4F04BF41F40021704730B54FF4607416
:10044C0001F0004521F000411CE700BF50EA010219
:10045C0008BF704730B54FF000050AE050EA0102C2
:10046C0008BF704730B511F0004502D5404261EB32
:10047C0041014FF4806404F132045FEA915C3FF473
:10048C00D8AE4FF003025FEADC0C18BF03325FEA10
:10049C00DC0C18BF033202EBDC02C2F1200300FAC1
:1004AC0003FC20FA02F001FA03FE40EA0E0021FAE6
:1004BC0002F11444BDE600BF70B54FF0FF0C4CF4D4
:1004CC00E06C1CEA11541DBF1CEA135594EA0C0F86
:1004DC0095EA0C0F00F0DEF82C4481EA030621EAC1
:1004EC004C5123EA4C5350EA013518BF52EA0335FC
:1004FC0041F4801143F4801338D0A0FB02CE4FF0AE
:10050C000005E1FB02E506F00042E0FB03E54FF0DD
:10051C000006E1FB03569CF0000F18BF4EF0010ED5
:10052C00A4F1FF04B6F5007F64F5407404D25FEAD1
:10053C004E0E6D4146EB060642EAC62141EA555184
:10054C004FEAC52040EA5E504FEACE2EB4F1FD0CC6
:10055C0088BFBCF5E06F1ED8BEF1004F08BF5FEA44
:10056C00500E50F1000041EB045170BD06F00046F6
:10057C0046EA010140EA020081EA0301B4EB5C04A3
:10058C00C2BFD4EB0C0541EA045170BD41F480119B
:10059C004FF0000E013C00F3AB8014F1360FDEBFC0
:1005AC00002001F0004170BDC4F10004203C35DA9C
:1005BC000C341BDC04F11404C4F1200500FA05F31F
:1005CC0020FA04F001FA05F240EA020001F00042C0
:1005DC0021F0004110EBD37021FA04F642EB060136
:1005EC005EEA430E08BF20EAD37070BDC4F10C0460
:1005FC00C4F1200500FA04F320FA05F001FA04F224
:10060C0040EA020001F0004110EBD37041F100010F
:10061C005EEA430E08BF20EAD37070BDC4F120051A
:10062C0000FA05F24EEA020E20FA04F301FA05F282
:10063C0043EA020321FA04F001F0004121FA04F22A
:10064C0020EA020000EBD3705EEA430E08BF20EAFA
:10065C00D37070BD94F0000F0FD101F00046400034
:10066C0041EB010111F4801F08BF013CF7D041EAB6
:10067C00060195F0000F18BF704703F000465200BA
:10068C0043EB030313F4801F08BF013DF7D043EA8B
:10069C000603704794EA0C0F0CEA135518BF95EA41
:1006AC000C0F0CD050EA410618BF52EA4306D1D1C8
:1006BC0081EA030101F000414FF0000070BD50EAE7
:1006CC00410606BF1046194652EA430619D094EA71
:1006DC000C0F02D150EA013613D195EA0C0F05D15B
:1006EC0052EA03361CBF104619460AD181EA0301AF
:1006FC0001F0004141F0FE4141F470014FF0000067
:10070C0070BD41F0FE4141F4780170BD70B54FF001
:10071C00FF0C4CF4E06C1CEA11541DBF1CEA135581
:10072C0094EA0C0F95EA0C0F00F0A7F8A4EB050463
:10073C0081EA030E52EA03354FEA013100F088805A
:10074C004FEA03334FF0805545EA131343EA126323
:10075C004FEA022245EA111545EA10654FEA0026D8
:10076C000EF000419D4208BF964244F1FD0404F591
:10077C00407402D25B084FEA3202B61A65EB0305ED
:10078C005B084FEA32024FF480104FF4002CB6EBAA
:10079C00020E75EB030E22BFB61A754640EA0C002A
:1007AC005B084FEA3202B6EB020E75EB030E22BF6A
:1007BC00B61A754640EA5C005B084FEA3202B6EBAB
:1007CC00020E75EB030E22BFB61A754640EA9C006A
:1007DC005B084FEA3202B6EB020E75EB030E22BF3A
:1007EC00B61A754640EADC0055EA060E18D04FEAF8
:1007FC00051545EA16754FEA06164FEAC30343EA98
:10080C0052734FEAC2025FEA1C1CC0D111F4801F64
:10081C000BD141EA00014FF000004FF0004CB6E75D
:10082C0011F4801F04BF01430020B4F1FD0C88BFFC
:10083C00BCF5E06F3FF6AFAEB5EB030C04BFB6EB07
:10084C00020C5FEA500C50F1000041EB045170BDFA
:10085C000EF0004E4EEA113114EB5C04C2BFD4EB27
:10086C000C0541EA045170BD41F480114FF0000EAB
:10087C00013C90E645EA060E8DE60CEA135594EA27
:10088C000C0F08BF95EA0C0F3FF43BAF94EA0C0F2A
:10089C000AD150EA01347FF434AF95EA0C0F7FF49F
:1008AC0025AF104619462CE795EA0C0F06D152EAF3
:1008BC0003353FF4FDAE1046194622E750EA4106D7
:1008CC0018BF52EA43067FF4C5AE50EA41047FF4E8
:1008DC000DAF52EA43057FF4EBAE12E74FF0FF3C4D
:1008EC0006E000BF4FF0010C02E000BF4FF0010C1E
:1008FC004DF804CD4FEA410C7FEA6C5C4FEA430C97
:10090C0018BF7FEA6C5C1BD001B050EA410C0CBFE5
:10091C0052EA430C91EA030F02BF90EA020F002047
:10092C00704710F1000F91EA030F58BF994208BFAE
:10093C0090422CBFD8176FEAE37040F0010070476B
:10094C004FEA410C7FEA6C5C02D150EA013C07D1C2
:10095C004FEA430C7FEA6C5CD6D152EA033CD3D00D
:10096C005DF8040B704700BF8446104662468C4607
:10097C001946634600E000BF01B5FFF7B7FF00283A
:10098C0048BF10F1000F01BD4DF808EDFFF7F4FF63
:10099C000CBF012000205DF808FB00BF4DF808EDEE
:1009AC00FFF7EAFF34BF012000205DF808FB00BF11
:1009BC004DF808EDFFF7E0FF94BF012000205DF833
:1009CC0008FB00BF4DF808EDFFF7CEFF94BF0120E8
:1009DC0000205DF808FB00BF4DF808EDFFF7C4FFE1
:1009EC0034BF012000205DF808FB00BF4A0011D283
:1009FC0012F5001211D20DD56FF47873B3EB62526D
:100A0C000ED44FEAC12343F0004343EA505323FA78
:100A1C0002F070474FF00000704750EA013002D1ED
:100A2C004FF0FF3070474FF00000704780F00040EF
:100A3C0002E000BF81F0004142001FBF5FEA4103AA
:100A4C0092EA030F7FEA226C7FEA236C6AD04FEAAA
:100A5C001262D2EB1363C1BFD218414048404140EF
:100A6C00B8BF5B42192B88BF704710F0004F40F4A1
:100A7C00000020F07F4018BF404211F0004F41F4BD
:100A8C00000121F07F4118BF494292EA030F3FD089
:100A9C00A2F1010241FA03FC10EB0C00C3F120039C
:100AAC0001FA03F100F0004302D5494260EB40002B
:100ABC00B0F5000F13D3B0F1807F06D340084FEA96
:100ACC00310102F10102FE2A51D2B1F1004F40EB8B
:100ADC00C25008BF20F0010040EA030070474900F3
:100AEC0040EB0000013A28BFB0F5000FEDD2B0FA90
:100AFC0080FCACF1080CB2EB0C0200FA0CF0AABFB3
:100B0C0000EBC25052421843BCBFD0401843704750
:100B1C0092F0000F81F4000106BF80F40000013256
:100B2C00013BB5E74FEA41037FEA226C18BF7FEA2D
:100B3C00236C21D092EA030F04D092F0000F08BF6F
:100B4C000846704790EA010F1CBF0020704712F056
:100B5C007F4F04D1400028BF40F00040704712F195
:100B6C0000723CBF00F50000704700F0004343F0FA
:100B7C00FE4040F4000070477FEA226216BF084630
:100B8C007FEA23630146420206BF5FEA412390EAF3
:100B9C00010F40F4800070474FF0000304E000BFE9
:100BAC0010F0004348BF40425FEA000C08BF70479A
:100BBC0043F0964301464FF000001CE050EA01025E
:100BCC0008BF70474FF000030AE000BF50EA010273
:100BDC0008BF704711F0004302D5404261EB410160
:100BEC005FEA010C02BF84460146002043F0B64385
:100BFC0008BFA3F18053A3F50003BCFA8CF2083AAA
:100C0C00A3EBC25310DB01FA02FC634400FA02FCB2
:100C1C00C2F12002BCF1004F20FA02F243EB0200B9
:100C2C0008BF20F00100704702F1200201FA02FC1B
:100C3C00C2F1200250EA4C0021FA02F243EB02000E
:100C4C0008BF20EADC7070474FF0FF0C1CEAD05252
:100C5C001EBF1CEAD15392EA0C0F93EA0C0F6FD013
:100C6C001A4480EA010C400218BF5FEA41211ED0F1
:100C7C004FF0006343EA501043EA5111A0FB0131DD
:100C8C000CF00040B1F5000F3EBF490041EAD371B2
:100C9C005B0040EA010062F17F02FD2A1DD8B3F12E
:100CAC00004F40EBC25008BF20F00100704790F09D
:100CBC00000F0CF0004C08BF49024CEA502040EAEF
:100CCC0051207F3AC2BFD2F1FF0340EAC2507047B5
:100CDC0040F400004FF00003013A5DDC12F1190FF3
:100CEC00DCBF00F000407047C2F10002410021FA65
:100CFC0002F1C2F1200200FA02FC5FEA310040F17D
:100D0C00000053EA4C0308BF20EADC70704792F0F5
:100D1C00000F00F0004C02BF400010F4000F013A2D
:100D2C00F9D040EA0C0093F0000F01F0004C02BF28
:100D3C00490011F4000F013BF9D041EA0C018FE797
:100D4C000CEAD15392EA0C0F18BF93EA0C0F0AD09D
:100D5C0030F0004C18BF31F0004CD8D180EA0100C3
:100D6C0000F00040704790F0000F17BF90F0004F5C
:100D7C00084691F0000F91F0004F14D092EA0C0F3E
:100D8C0001D142020FD193EA0C0F03D14B0218BFD1
:100D9C00084608D180EA010000F0004040F0FE4017
:100DAC0040F40000704740F0FE4040F440007047B3
:100DBC004FF0FF0C1CEAD0521EBF1CEAD15392EA32
:100DCC000C0F93EA0C0F69D0A2EB030280EA010C22
:100DDC0049024FEA402037D04FF0805343EA1111BB
:100DEC0043EA10130CF000408B4238BF5B0042F119
:100DFC007D024FF4000C8B4224BF5B1A40EA0C00BE
:100E0C00B3EB510F24BFA3EB510340EA5C00B3EBEF
:100E1C00910F24BFA3EB910340EA9C00B3EBD10FDD
:100E2C0024BFA3EBD10340EADC001B0118BF5FEA2F
:100E3C001C1CE0D1FD2A3FF650AF8B4240EBC25058
:100E4C0008BF20F0010070470CF0004C4CEA502019
:100E5C007F32C2BFD2F1FF0340EAC250704740F468
:100E6C0000004FF00003013A37E792F0000F00F05A
:100E7C00004C02BF400010F4000F013AF9D040EAD8
:100E8C000C0093F0000F01F0004C02BF490011F46C
:100E9C00000F013BF9D041EA0C0195E70CEAD15364
:100EAC0092EA0C0F08D142027FF47DAF93EA0C0F4B
:100EBC007FF470AF084676E793EA0C0F04D14B022F
:100ECC003FF44CAF08466EE730F0004C18BF31F0E1
:100EDC00004CCAD130F000427FF45CAF31F00043DB
:100EEC007FF43CAF5FE700BF4FF0FF3C06E000BF74
:100EFC004FF0010C02E000BF4FF0010C4DF804CD97
:100F0C004FEA40024FEA41037FEA226C18BF7FEAA6
:100F1C00236C11D001B052EA530C18BF90EA010FA8
:100F2C0058BFB2EB030088BFC81738BF6FEAE17037
:100F3C0018BF40F0010070477FEA226C02D15FEAD3
:100F4C00402C05D17FEA236CE4D15FEA412CE1D03F
:100F5C005DF8040B704700BF844608466146FFE706
:100F6C000FB5FFF7C9FF002848BF10F1000F0FBDE8
:100F7C004DF808EDFFF7F4FF0CBF012000205DF8E1
:100F8C0008FB00BF4DF808EDFFF7EAFF34BF012066
:100F9C0000205DF808FB00BF4DF808EDFFF7E0FFFF
:100FAC0094BF012000205DF808FB00BF4DF808ED50
:100FBC00FFF7D2FF94BF012000205DF808FB00BFB3
:100FCC004DF808EDFFF7C8FF34BF012000205DF895
:100FDC0008FB00BF42000ED2B2F1FE4F0BD34FF014
:100FEC009E03B3EB126209D44FEA002343F0004393
:100FFC0023FA02F070474FF00000704712F1610FB6
:10100C0001D1420202D14FF0FF3070474FF0000087
:10101C00704700BF80B584B000AF3B1D00221A6042
:10102C005A609A602E4B2F4A1A602D4B4FF48072E7
:10103C009A602B4B00221A73294B00221A75284BED
:10104C004FF46022DA61264B00225A60244B0422B2
:10105C001A61234801F00EFD0346002B01D001F06C
:10106C008BF900237B600123BB600723FB603B1DD6
:10107C0019461B4801F0DAFF0346002B01D001F0A2
:10108C007BF901237B600223BB603B1D194614488E
:10109C0001F0CCFF0346002B01D001F06DF90223C7
:1010AC007B600323BB603B1D19460D4801F0BEFF5E
:1010BC000346002B01D001F05FF903237B6004236E
:1010CC00BB603B1D1946064801F0B0FF0346002BE0
:1010DC0001D001F051F900BF1037BD4680BD00BFF3
:1010EC00400000200024014080B588B000AF78603B
:1010FC0007F1100300221A605A609A60DA607B686C
:10110C001B682C4A934251D12B4B9B692A4A43F4BE
:10111C0000739361284B9B6903F40073FB60FB68BD
:10112C00254B9B69244A43F004039361224B9B6932
:10113C0003F00403BB60BB680F233B6103237B619B
:10114C0007F1100319461D4802F01AFD1C4B1D4AED
:10115C001A601B4B00225A60194B00229A60184BE4
:10116C008022DA60164B4FF480721A61144B4FF4E4
:10117C0080625A61124B00229A61114B0022DA6193
:10118C000F4802F05BFA0346002B01D001F0F4F893
:10119C007B680B4A1A620A4A7B6853620022002160
:1011AC00122002F014FA122002F02DFA00BF2037A0
:1011BC00BD4680BD002401400010024000080140E3
:1011CC00700000200800024080B582B000AF0C4BCC
:1011DC005B690B4A43F001035361094B5B6903F0F4
:1011EC0001037B607B68002200210B2002F0EFF9E9
:1011FC000B2002F008FA00BF0837BD4680BD00BFC7
:10120C000010024080B588B000AF07F11003002237
:10121C001A605A609A60DA605D4B9B695C4A43F0D5
:10122C00100393615A4B9B6903F01003FB60FB683E
:10123C00574B9B69564A43F020039361544B9B696F
:10124C0003F02003BB60BB68514B9B69504A43F0D1
:10125C00040393614E4B9B6903F004037B607B6832
:10126C004B4B9B694A4A43F008039361484B9B697B
:10127C0003F008033B603B6800224FF400514548E3
:10128C0002F002FE00221921434802F0FDFD00226B
:10129C004FF40041414802F0F7FD4FF400533B611D
:1012AC0001237B610023BB610223FB6107F1100367
:1012BC001946384802F064FC4FF440433B61032369
:1012CC007B6107F110031946324802F059FC41F6D4
:1012DC0010133B6103237B6107F1100319462F4860
:1012EC0002F04EFC19233B6101237B610023BB619F
:1012FC000223FB6107F110031946274802F040FC5A
:10130C0043F206033B6103237B6107F1100319468B
:10131C00214802F035FC4CF620433B61204B7B61AD
:10132C000023BB6107F1100319461B4802F028FC8F
:10133C004FF400433B6101237B610023BB6102231B
:10134C00FB6107F110031946144802F019FC4FF425
:10135C0000733B6100237B610023BB6107F1100329
:10136C0019460D4802F00CFC00220021172002F057
:10137C002EF9172002F047F900220021282002F054
:10138C0026F9282002F03FF900BF2037BD4680BD6A
:10139C000010024000100140000C01400008014008
:1013AC0000001110B0B584B000AF05F0C3F900F027
:1013BC0073FDFFF727FFFFF707FFFFF72BFE00F08A
:1013CC00E1FF01F0FBF901F013F9994803F062FD1C
:1013DC000021974803F000FE0421954803F0FCFD22
:1013EC000821934803F0F8FD914B1B6800225A63C7
:1013FC008F4B1B6800229A638D4B1B680022DA63AB
:10140C008C4801F07FFA04228B498A4801F00AFCCF
:10141C0005F0E8F903469AB2884B1A80874B1A8874
:10142C00874B1B88D31A9AB2864B1A80854B1B8824
:10143C00042B67D9844B1B78002B5FD0824B002286
:10144C001A707C4801F0CCFC0023FB600AE07A4A5D
:10145C00FB6852F823207D49FB6841F82320FB6888
:10146C000133FB60FB68032BF1DD784B5968784B3B
:10147C001B881A4689B2774B23F81210744B1B88C1
:10148C00632B03D1724B00221A8005E0704B1B8832
:10149C0001339AB26E4B1A806F4B4FF000021A60F8
:1014AC000023BB6014E06B4ABB6832F8133018465B
:1014BC00FFF772FB0246684B1B6819461046FFF794
:1014CC00BBFA03461A46644B1A60BB680133BB6017
:1014DC00BB68632BE7DD604B1B6860491846FFF760
:1014EC0067FC03461A465C4B1A605B4B1B685C4AF4
:1014FC001360042250494F4801F094FB4F4B1A885B
:10150C004F4B1A8000221021564802F0BDFC0A20D5
:10151C0005F072F9494B1A88534B1B88D31A9AB2AF
:10152C00524B1A80524B1B78002B00F01A81514BF6
:10153C001B78FF2B40F011814F4B00221A804D4B32
:10154C005B78E03B1A2B00F2058101A252F823F0E4
:10155C00D915000861170008611700086117000809
:10156C00611700086117000861170008611700086F
:10157C00611700086117000861170008611700085F
:10158C00611700086117000861170008611700084F
:10159C001316000899160008C1160008E916000871
:1015AC0011170008391700086117000861170008A7
:1015BC006117000861170008C91500082D4B9A78AF
:1015CC002E4B1A702C4B01221A80C3E0294B9B78AE
:1015DC00002B04D1224B1B68294A13600FE0204BCF
:1015EC001B68284A1360124B1B6800225A63104B6D
:1015FC001B6800229A630E4B1B680022DA631E4B99
:10160C0002221A80A6E01B4BDB789AB21E4B1A8082
:10161C00184B9B789AB21C4B1B881B029BB2134431
:10162C009AB2194B1A80144B03221A8092E000BF15
:10163C007002002040000020B4000020BA010020FD
:10164C00B401002012020020D4000020C4000020AD
:10165C00E8000020EC000020D80000200000C84268
:10166C00E0000020000C0140B60100201402002014
:10167C00DE000020BC01002016000020DF0000204E
:10168C00000000200400002008000020734BDB78D1
:10169C009AB2734B1A80714B9B789AB2704B1B8821
:1016AC001B029BB213449AB26D4B1A806D4B0422F1
:1016BC001A804FE0694BDB789AB26B4B1A80674B00
:1016CC009B789AB2684B1B881B029BB213449AB24C
:1016DC00654B1A80634B05221A803BE05F4BDB782D
:1016EC009AB2624B1A805D4B9B789AB25F4B1B8807
:1016FC001B029BB213449AB25C4B1A80594B0622C4
:10170C001A8027E0554BDB789AB2594B1A80534B11
:10171C009B789AB2564B1B881B029BB213449AB20D
:10172C00534B1A804F4B07221A8013E04B4BDB783C
:10173C009AB2504B1A80494B9B789AB24D4B1B88EE
:10174C001B029BB213449AB24A4B1A80454B082297
:10175C001A8000BF484B00221A70424B4FF6FD72A4
:10176C001A8001224549464804F0B7FA454B1B68DC
:10177C00454A126811461846FFF704FC0346002B35
:10178C0004D0424B4FF000021A601FE03D4B1B6827
:10179C003D4A126811461846FFF74CF903461C46A1
:1017AC003B4B1B68384A126811461846FFF742F942
:1017BC00034619462046FFF7FBFA034635491846FF
:1017CC00FFF742FA03461A46304B1A60324B1B782D
:1017DC00052B00F2538301A252F823F001180008E4
:1017EC00891E000815180008891E0008851D0008B0
:1017FC00891E0008294B00221A70294B00221A70EE
:10180C00284B05221A703AE3204B1B681846FFF749
:10181C00E1FB03469BB21946234800F081FC0346CA
:10182C001A46224B1A70224B74221A70204B352206
:10183C005A701F4B2E229A701D4B7422DA701C4B5F
:10184C0078221A711A4B74225A71194B3D229A71D3
:10185C00174B2222DA7100237B6036E0BC0100209A
:10186C000A000020160000200C00002010000020B0
:10187C000E00002012000020DE000020DC00002002
:10188C00B8020020E0000020000000200C02002024
:10189C000400002000007A44DF000020E400002057
:1018AC00E5000020E60000200002002007020020D6
:1018BC00D40100207B680833A2497A680A44117865
:1018CC00A14AD1547B6801337B60A04B1B781A462C
:1018DC007B689342EEDB9D4B1B7808339A4A22219E
:1018EC00D1549A4B1B780933974AFF21D154974B0B
:1018FC001B780A33944AFF21D154944B1B780B3339
:10190C00914AFF21D154914B1B780C33DAB2904B96
:10191C001A70904B1B78DBB2052B02D18D4B002239
:10192C001A708D4B1A888D4B1B88D31A9AB28C4B1C
:10193C001A808C4B1B78002B00F0C381884B1B88C2
:10194C00632B40F2AB81884B1B7883F00103DBB235
:10195C00002B5ED0854B1B6800225A63834B1B689F
:10196C0000229A63814B1B680022DA634FF4FA70F1
:10197C0004F042FF7E4B1B88002B13D07C4B1B8842
:10198C001A4613461B019B1A9B001846FEF72AFDAC
:10199C0002460B4675490C6810461946FFF726F8A7
:1019AC000346A363734B1B88002B13D0714B1B880E
:1019BC001A4613461B019B1A9B001846FEF712FD94
:1019CC0002460B4669490C6810461946FFF70EF89B
:1019DC0003466363684B1B88002B13D0664B1B8834
:1019EC001A4613461B019B1A9B001846FEF7FAFC7D
:1019FC0002460B465D490C6810461946FEF7F6FF89
:101A0C000346E363534B01221A70574B01221A70A1
:101A1C0053E15A4B1B881846FFF7C2F80246584B45
:101A2C001B6819461046FFF7ADFA0346002B15D07C
:101A3C004E4B1B6800225A634C4B1B6800229A6366
:101A4C004A4B1B680022DA63424B04221A70464B45
:101A5C0000221A70434B00221A702EE1484B1B686F
:101A6C001846FEF7D1FC04460D46464B1B881A4619
:101A7C00424B1B8802FB03F31846FEF7B3FC4FF0F6
:101A8C000002414BFEF742FE02460B462046294619
:101A9C00FEF7A2FF0346002B0BD0344B1B68002231
:101AAC005A63324B1B6800229A632A4B03221A702A
:101ABC0003E1284B1B78DBB2032B67D12B4B1B6844
:101ACC0000225A63294B1B6800229A63274B1B6820
:101ADC000022DA634FF4967004F08EFE254B1B88BF
:101AEC00002B13D0234B1B881A4613461B019B1A41
:101AFC009B001846FEF776FC02460B461B490C6809
:101B0C0010461946FEF772FF034663631A4B1B8897
:101B1C00002B13D0184B1B881A4613461B019B1A1B
:101B2C009B001846FEF75EFC02460B460F490C68FC
:101B3C0010461946FEF75AFF0346E363054B022293
:101B4C001A70BAE000020020D40100200702002025
:101B5C00FC010020E6000020BA010020B8010020A2
:101B6C0016020020E4000020E50000207002002096
:101B7C00100000200E0000201200002008000020A1
:101B8C000C0200200C000020000059408F4B1B68F9
:101B9C001846FEF739FC04460D468D4B1B881A4639
:101BAC008C4B1B8802FB03F31846FEF71BFC4FF013
:101BBC000002894BFEF7AAFD02460B462046294639
:101BCC00FEF70AFF0346002B07D0844B1B6800224C
:101BDC009A63834B02221A706FE0814B1B78DBB245
:101BEC00022B6AD17D4B1B6800225A637B4B1B680E
:101BFC0000229A63794B1B680022DA634FF49670CB
:101C0C0004F0FAFD774B1B88002B13D0754B1B8807
:101C1C001A4613461B019B1A9B001846FEF7E2FB63
:101C2C0002460B466D490C6810461946FEF7DEFE5F
:101C3C000346A3636C4B1B88002B13D06A4B1B8889
:101C4C001A4613461B019B1A9B001846FEF7CAFB4B
:101C5C0002460B4661490C6810461946FEF7C6FE53
:101C6C0003466363614B1B88002B13D05F4B1B88AF
:101C7C001A4613461B019B1A9B001846FEF7B2FB33
:101C8C0002460B4655490C6810461946FEF7AEFE47
:101C9C000346E363524B01221A700EE04F4B1B6854
:101CAC0000225A634D4B1B6800229A634B4B1B68F6
:101CBC000022DA634A4B00221A704D4B1A884D4BA6
:101CCC001A804D4B1B781A464C4B762199544A4B33
:101CDC001B780133494A6121D154474B1B7802339D
:101CEC00464A3021D154444B1B780333434A2E21AE
:101CFC00D154414B1B780433404A7621D1543E4B8E
:101D0C001B7805333D4A6121D1543B4B1B7806337C
:101D1C003A4A6C21D154384B1B780733374A3D2152
:101D2C00D1542F4B1B78DAB2334B1B78083330323B
:101D3C00D1B2324AD154304B1B7809332F4AFF2190
:101D4C00D1542D4B1B780A332C4AFF21D1542A4BEA
:101D5C001B780B33294AFF21D154274B1B780C33AA
:101D6C00DAB2254B1A70244B1B789BB21A462349C6
:101D7C00234803F07DFF82E0144B1B681846FFF7E5
:101D8C0029F903469BB219461E4800F0C9F90346CF
:101D9C001A461D4B1A70194B74221A70174B3522A8
:101DAC005A70164B2E229A70144B7422DA70134B05
:101DBC0078221A71114B74225A71104B3D229A7170
:101DCC000E4B2222DA7100233B602AE00C02002029
:101DDC000A0000200800002000005940700200207A
:101DEC00E6000020100000200E0000201200002051
:101DFC00BA010020B8010020FC010020D401002011
:101E0C00B802002000020020070200203B680833C3
:101E1C001C493A680A4411781B4AD1543B68013377
:101E2C003B601A4B1B781A463B689342EEDB174B10
:101E3C001B780833144A2221D154144B1B780933D4
:101E4C00114AFF21D154114B1B780A330E4AFF2142
:101E5C00D1540E4B1B780B330B4AFF21D1540B4B37
:101E6C001B780C33DAB20A4B1A70094B1B789BB2F5
:101E7C001A460549074803F0FBFE00E000BFFFF7D8
:101E8C00C7BA00BF00020020D401002007020020C6
:101E9C00FC010020B802002080B594B000AF07F11F
:101EAC00280328220021184604F0CAFC07F1140369
:101EBC0000221A605A609A60DA601A613B1D002297
:101ECC001A605A609A60DA600123BB624FF4803367
:101EDC00FB6200233B630123BB6302237B644FF44F
:101EEC008033BB644FF4E013FB6407F128031846FE
:101EFC0002F080F90346002B01D000F03DFA0F23CD
:101F0C007B610223BB610023FB614FF480633B6266
:101F1C0000237B6207F114030221184602F0ECFB4C
:101F2C000346002B01D000F027FA02237B604FF40C
:101F3C000043FB603B1D184601F0F0FF0346002BED
:101F4C0001D000F019FA00BF5037BD4680BD00002B
:101F5C0080B483B000AF78607B68054A934202D1AD
:101F6C00044B01221A7000BF0C37BD4680BC704771
:101F7C0040000020D400002080B582B000AF0346A2
:101F8C00FB80FB88202B03D1284B1B6800225A6254
:101F9C00FB88B3F5004F1FD14FF40051244801F0DA
:101FAC008BFF244B1B78DBB2002B04D0214B1B780E
:101FBC00DBB2042B10D1012208211F4801F064FF71
:101FCC0001224FF400411D4801F05EFF1C4B012221
:101FDC001A701C4B01221A70FB88B3F5806F04D168
:101FEC004FF40051124801F067FFFB88B3F5006F06
:101FFC0018D1154B01221A704FF400510C4801F006
:10200C005BFF002208210C4801F03EFF00224FF438
:10201C0000410A4801F038FF0A4B01221A70084BA4
:10202C0000221A7000BF0837BD4680BD7002002028
:10203C0000100140E6000020000C014000080140A7
:10204C0008020020E40000201002002080B582B0BD
:10205C0000AF78607B681B68044A934201D104F09E
:10206C00AFFB00BF0837BD4680BD00BF002C014050
:10207C0080B483B000AF7860034B01221A7000BFAC
:10208C000C37BD4680BC7047DD00002080B582B0A7
:10209C0000AF78607B681B68194A93422CD1194BAE
:1020AC001B781A46184B1978184B9954154B1B78FA
:1020BC000133DAB2134B1A70134B1A78144B1B788A
:1020CC009A420DD1134B114A07CA03C31A8002332B
:1020DC00120C1A70104B01221A700A4B00221A7043
:1020EC00084B1B780B2B02D9064B00221A700122CD
:1020FC0005490A4803F0F1FD00BF0837BD4680BD15
:10210C0000380140D3010020DC000020C801002071
:10211C0014000020BC010020DE000020B8020020CA
:10212C0080B483B000AF78600B467B807B88092B32
:10213C0011D87A888C4BA3FB0213D9080B469B0051
:10214C000B445B00D31A9BB2DBB23033DAB27B6840
:10215C001A70012303E17B88632B1DD87A88824B8C
:10216C00A3FB0213D9080B469B000B445B00D31A4C
:10217C009BB2DAB27B6801333032D2B21A707B88F0
:10218C00794AA2FB0323DB089BB2DBB23033DAB211
:10219C007B681A700223E2E07B88B3F57A7F32D237
:1021AC007A88714BA3FB0213D9080B469B000B4496
:1021BC005B00D31A9BB2DAB27B6802333032D2B2F4
:1021CC001A707B88694AA2FB03125209642101FB35
:1021DC0002F29B1A9BB2644AA2FB0323DB089BB25C
:1021EC00DAB27B6801333032D2B21A707B885F4A24
:1021FC00A2FB03235B099BB2DBB23033DAB27B6800
:10220C001A700323ABE07B8842F20F72934248D8DA
:10221C007A88554BA3FB0213D9080B469B000B4441
:10222C005B00D31A9BB2DAB27B6803333032D2B282
:10223C001A707B884D4AA2FB03125209642101FBE0
:10224C0002F29B1A9BB2484AA2FB0323DB089BB207
:10225C00DAB27B6802333032D2B21A707B88444ACD
:10226C00A2FB031292094FF47A7101FB02F29B1A42
:10227C009BB23E4AA2FB03235B099BB2DAB27B689A
:10228C0001333032D2B21A707B88394AA2FB032355
:10229C009B099BB2DBB23033DAB27B681A70042331
:1022AC005DE07A88304BA3FB0213D9080B469B00E8
:1022BC000B445B00D31A9BB2DAB27B680433303226
:1022CC00D2B21A707B88294AA2FB031252096421EC
:1022DC0001FB02F29B1A9BB2234AA2FB0323DB08ED
:1022EC009BB2DAB27B6803333032D2B21A707B887D
:1022FC001F4AA2FB031292094FF47A7101FB02F2FE
:10230C009B1A9BB2194AA2FB03235B099BB2DAB25C
:10231C007B6802333032D2B21A707B88154AA2FB2A
:10232C000312520B42F2107101FB02F29B1A9BB288
:10233C000F4AA2FB03239B099BB2DAB27B680133E1
:10234C003032D2B21A707B880A4AA2FB03235B0B91
:10235C009BB2DBB23033DAB27B681A7005231846B5
:10236C000C37BD4680BC7047CDCCCCCC1F85EB5117
:10237C00D34D62105917B7D180B400AF72B600BFFD
:10238C00FEE7000080B500AF174B184A1A60164BD9
:10239C004FF482725A60144B00229A60124B002246
:1023AC00DA60114B00221A610F4B00225A610E4B5E
:1023BC004FF400729A610C4B3822DA610A4B0022FE
:1023CC001A62094B00225A62074B00229A62064B92
:1023DC000A22DA62044802F01DFB0346002B01D0EE
:1023EC00FFF7CAFF00BF80BD18020020003001407B
:1023FC0080B588B000AF786007F1100300221A6036
:10240C005A609A60DA607B681B681F4A934237D126
:10241C001E4B9B691D4A43F4805393611B4B9B6974
:10242C0003F48053FB60FB68184B9B69174A43F01D
:10243C0004039361154B9B6903F00403BB60BB68F9
:10244C00A0233B6102237B610323FB6107F1100393
:10245C0019460F4801F094FB40233B6100237B613C
:10246C000023BB6107F110031946094801F088FBF2
:10247C0000220021232001F0AAF8232001F0C3F848
:10248C0000BF2037BD4680BD003001400010024027
:10249C000008014080B485B000AF154B9B69144A0D
:1024AC0043F001039361124B9B6903F00103BB6082
:1024BC00BB680F4BDB690E4A43F08053D3610C4B66
:1024CC00DB6903F080537B607B680A4B5B68FB60C5
:1024DC00FB6823F0E063FB60FB6843F00073FB6078
:1024EC00044AFB68536000BF1437BD4680BC70477C
:1024FC00001002400000014080B400AFFEE780B441
:10250C0000AFFEE780B400AFFEE780B400AFFEE79B
:10251C0080B400AFFEE780B400AF00BFBD4680BC06
:10252C00704780B400AF00BFBD4680BC704780B41C
:10253C0000AF00BFBD4680BC704780B500AF04F053
:10254C003FF900BF80BD000080B500AF024801F02C
:10255C00E3F900BF80BD00BF7000002080B500AF64
:10256C00024800F089FC00BF80BD00BF4000002085
:10257C0080B500AF202001F0B9FC00BF80BD000089
:10258C0080B500AF024802F0C9FD00BF80BD00BF9E
:10259C007002002080B500AF024802F0BFFA00BF05
:1025AC0080BD00BF1802002080B500AF024803F0C8
:1025BC00B9FB00BF80BD00BFB802002080B500AFE2
:1025CC004FF4806001F092FC4FF4006001F08EFC3F
:1025DC004FF4804001F08AFC4FF4004001F086FC7F
:1025EC0000BF80BD80B400AF00BFBD4680BC70474B
:1025FC0080B58EB000AF07F1280300221A605A6034
:10260C009A60DA6007F1200300221A605A603B1DC1
:10261C0000221A605A609A60DA601A615A619A61F3
:10262C00374B384A1A60364B41F61F425A60344BCE
:10263C0000229A60324BA622DA60314B00221A61DA
:10264C002F4B00229A612E4802F0D4FB0346002B3C
:10265C0001D0FFF791FE4FF48053BB6207F12803C2
:10266C001946274802F024FF0346002B01D0FFF740
:10267C0083FE234802F058FC0346002B01D0FFF7E1
:10268C007BFE00233B6200237B6207F1200319468B
:10269C001B4802F03FFB0346002B01D0FFF76CFEFA
:1026AC0060237B600023BB600023FB6000237B6105
:1026BC003B1D00221946124802F038FE0346002B3F
:1026CC0001D0FFF759FE3B1D042219460C4802F0BD
:1026DC002DFE0346002B01D0FFF74EFE3B1D0822BA
:1026EC001946074802F022FE0346002B01D0FFF7E3
:1026FC0043FE034800F02EF800BF3837BD4680BDBE
:10270C00700200200008004080B584B000AF7860F3
:10271C007B681B680D4A934213D10D4BDB690C4A45
:10272C0043F00403D3610A4BDB6903F00403FB6041
:10273C00FB68002200211E2000F049FF1E2000F043
:10274C0062FF00BF1037BD4680BD00BF00080040CF
:10275C000010024080B588B000AF786007F110031C
:10276C0000221A605A609A60DA607B681B68104A13
:10277C00934218D10F4B9B690E4A43F008039361A7
:10278C000C4B9B6903F00803FB60FB684FF4E07390
:10279C003B6102237B610223FB6107F110031946A5
:1027AC00054801F0EDF900BF2037BD4680BD00BFE4
:1027BC000008004000100240000C014080B500AF42
:1027CC00114B124A1A60104B4FF416525A600E4BB2
:1027DC0000229A600C4B0022DA600B4B00221A612B
:1027EC00094B0C225A61084B00229A61064B0022BD
:1027FC00DA61054803F0ECF90346002B01D0FFF732
:10280C00BBFD00BF80BD00BFB802002000380140F6
:10281C0080B588B000AF786007F1100300221A6011
:10282C005A609A60DA607B681B68204A934239D1FF
:10283C001F4B9B691E4A43F4804393611C4B9B695D
:10284C0003F48043FB60FB68194B9B69184A43F007
:10285C0004039361164B9B6903F00403BB60BB68D4
:10286C004FF400733B6102237B610323FB6107F18F
:10287C00100319460F4801F083F94FF480633B6154
:10288C0000237B610023BB6107F110031946094843
:10289C0001F076F900220021252000F098FE252079
:1028AC0000F0B1FE00BF2037BD4680BD00380140AE
:1028BC000010024000080140FFF794FE0B480C4941
:1028CC000C4A002302E0D458C4500433C4188C4280
:1028DC00F9D3094A094C002301E013600432A242E7
:1028EC00FBD303F0B5FFFEF75DFD70470000002041
:1028FC0024000020046900082400002004030020A8
:10290C00FEE7000090B587B000AF78600023FB7540
:10291C000023FB607B6893F82430012B01D1022348
:10292C0097E07B68012283F82420786800F0D0FCC3
:10293C000346FB75786800F071FC0346FB75FB7D64
:10294C00002B40F081807B689B6A23F4885323F032
:10295C00020343F002027B689A62404B1C6802201F
:10296C0001F092FB0346B4FBF3F35B00FB6002E067
:10297C00FB68013BFB60FB68002BF9D17B681B6893
:10298C009A687B681B6842F008029A6003F02AFF81
:10299C0038611BE003F026FF02463B69D31A0A2B71
:1029AC0014D97B681B689B6803F00803002B0DD0BF
:1029BC007B689B6A23F0120343F010027B689A62D7
:1029CC007B68002283F82420012342E07B681B688B
:1029DC009B6803F00803002BDCD17B681B689A68AA
:1029EC007B681B6842F004029A6003F0FBFE3861BE
:1029FC001BE003F0F7FE02463B69D31A0A2B14D9ED
:102A0C007B681B689B6803F00403002B0DD07B686C
:102A1C009B6A23F0120343F010027B689A627B6876
:102A2C00002283F82420012313E07B681B689B6839
:102A3C0003F00403002BDCD17B689B6A23F00303B7
:102A4C0043F001027B689A627B68002283F82420A1
:102A5C00FB7D18461C37BD4690BD00BF18000020FA
:102A6C0080B483B000AF786000BF0C37BD4680BC2B
:102A7C007047000080B586B000AF78600023FB750E
:102A8C0000233B610023BB600023FB607B68002BB1
:102A9C0001D10123BEE07B689B68002B7B689B6A9D
:102AAC00002B09D17B680022DA627B68002283F854
:102ABC0024207868FEF718FB786800F009FC0346C0
:102ACC00FB757B689B6A03F01003002B40F0998028
:102ADC00FB7D002B40F095807B689B6A23F4885328
:102AEC0023F0020343F002027B689A627B685A6807
:102AFC007B68DB691A437B681B7B5B001343BA68FA
:102B0C001343BB607B689B68B3F5807F03D07B6805
:102B1C009B68012B02D14FF4807300E000233A69CB
:102B2C0013433B617B681B7D012B19D17B681B7B9D
:102B3C00002B09D17B689B69013B5A033B6913430A
:102B4C0043F400633B610BE07B689B6A43F020021B
:102B5C007B689A627B68DB6A43F001027B68DA620D
:102B6C007B681B685B6823F469417B681B683A6966
:102B7C000A435A607B681B689A68284B13407A6832
:102B8C001268B9680B4393607B689B68B3F5807FD0
:102B9C0003D07B689B68012B04D17B681B69013BCC
:102BAC001B05FB607B681B68DB6A23F470017B6888
:102BBC001B68FA680A43DA627B681B689A68184BD0
:102BCC001340BA689A420BD17B680022DA627B68A8
:102BDC009B6A23F0030343F001027B689A6218E0BE
:102BEC007B689B6A23F0120343F010027B689A62A5
:102BFC007B68DB6A43F001027B68DA620123FB75B8
:102C0C0007E07B689B6A43F010027B689A620123A1
:102C1C00FB75FB7D18461837BD4680BDFDF7E1FFFF
:102C2C00FE0E1FFF80B586B000AFF860B9607A6009
:102C3C000023FB75FB681B68644A934204D0FB6855
:102C4C001B68634A934206D1604B5B6803F47023A4
:102C5C00002B40F0B380FB6893F82430012B01D19A
:102C6C000223AEE0FB68012283F82420F86800F010
:102C7C00D5FA0346FB75FB7D002B40F09A80FB6870
:102C8C009B6A23F4706323F0010343F48072FB68A6
:102C9C009A62FB681B684E4A934205D14B4B5B68AA
:102CAC0003F47023002B15D1FB689B6A23F480126C
:102CBC00FB689A62FB681B685B6803F48063002BFB
:102CCC0026D0FB689B6A23F4405343F48052FB6884
:102CDC009A621DE0FB689B6A43F48012FB689A625F
:102CEC00FB681B68394A934204D0FB681B68384A5E
:102CFC0093420DD1354B5B6803F48063002B07D0F6
:102D0C00FB689B6A23F4405343F48052FB689A623D
:102D1C00FB689B6A03F48053002B06D0FB68DB6ACC
:102D2C0023F00602FB68DA6202E0FB680022DA623A
:102D3C00FB68002283F82420FB681B6A254A9A62F0
:102D4C00FB681B6A244ADA62FB681B6A234A1A6313
:102D5C00FB681B686FF002021A60FB681B689A68BC
:102D6C00FB681B6842F480729A60FB68186AFB6807
:102D7C001B684C331946BA687B6800F0B9FCFB68D9
:102D8C001B689B6803F46023B3F5602F08D1FB68C4
:102D9C001B689A68FB681B6842F4A0029A600FE0FB
:102DAC00FB681B689A68FB681B6842F480129A6087
:102DBC0006E0FB68002283F8242001E00123FB7568
:102DCC00FB7D18461837BD4680BD00BF002401406E
:102DDC00002801405F330008DB330008F73300089C
:102DEC0080B584B000AF78600023FB737B6893F8E8
:102DFC002430012B01D102233AE07B68012283F8B5
:102E0C002420786800F064FA0346FB73FB7B002BEC
:102E1C0029D17B681B689A687B681B6822F48072D6
:102E2C009A607B681B6A93F82130DBB2022B1AD1B3
:102E3C007B681B6A184600F0BBFC0346FB73FB7BEC
:102E4C00002B0AD17B689B6A23F4885323F001037F
:102E5C0043F001027B689A6205E07B689B6A43F051
:102E6C0040027B689A627B68002283F82420FB7BFB
:102E7C0018461037BD4680BD80B584B000AF786071
:102E8C007B681B681B68FB607B681B685B68BB60AE
:102E9C00BB6803F02003002B3ED0FB6803F0020359
:102EAC00002B39D07B689B6A03F01003002B05D1F3
:102EBC007B689B6A43F400727B689A627B681B6830
:102ECC009B6803F46023B3F5602F1DD17B681B7BDB
:102EDC00002B19D17B681B685A687B681B6822F031
:102EEC0020025A607B689B6A23F480727B689A622A
:102EFC007B689B6A03F48053002B05D17B689B6A2B
:102F0C0043F001027B689A627868FFF721F87B68CE
:102F1C001B686FF012021A60BB6803F08003002B71
:102F2C004DD0FB6803F00403002B48D07B689B6AF0
:102F3C0003F01003002B05D17B689B6A43F400520D
:102F4C007B689A627B681B689B6803F4E043B3F56B
:102F5C00E04F12D07B681B685B6803F48063002B26
:102F6C0025D17B681B689B6803F46023B3F5602F45
:102F7C001DD17B681B7B002B19D17B681B685A68A1
:102F8C007B681B6822F080025A607B689B6A23F482
:102F9C0080527B689A627B689B6A03F48073002B77
:102FAC0005D17B689B6A43F001027B689A62786862
:102FBC00FFF756FD7B681B686FF00C021A60BB684C
:102FCC0003F04003002B12D0FB6803F00103002B2D
:102FDC000DD07B689B6A43F480327B689A62786878
:102FEC0000F012F87B681B686FF001021A6000BFDA
:102FFC001037BD4680BD80B483B000AF786000BF91
:10300C000C37BD4680BC704780B483B000AF78608D
:10301C0000BF0C37BD4680BC704780B483B000AF96
:10302C00786000BF0C37BD4680BC704780B485B05B
:10303C0000AF786039600023FB730023BB607B68B2
:10304C0093F82430012B01D10223DCE07B680122B0
:10305C0083F824203B685B68062B1CD87B681B68B4
:10306C00596B3B685A6813469B001344053B1F225F
:10307C0002FA03F3DB4319403B6818683B685A6853
:10308C0013469B001344053B00FA03F27B681B6854
:10309C000A435A633CE03B685B680C2B1CD87B688A
:1030AC001B68196B3B685A6813469B001344233BFF
:1030BC001F2202FA03F3DB4319403B6818683B6894
:1030CC005A6813469B001344233B00FA03F27B68B7
:1030DC001B680A431A631BE07B681B68D96A3B6850
:1030EC005A6813469B001344413B1F2202FA03F318
:1030FC00DB4319403B6818683B685A6813469B00D1
:10310C001344413B00FA03F27B681B680A43DA6202
:10311C003B681B68092B1CD97B681B68D9683B680A
:10312C001A6813465B0013441E3B072202FA03F392
:10313C00DB4319403B6898683B681A6813465B0090
:10314C0013441E3B00FA03F27B681B680A43DA60E7
:10315C0019E07B681B6819693B681A6813465B00A9
:10316C001344072202FA03F3DB4319403B689868C7
:10317C003B681A6813465B00134400FA03F27B6841
:10318C001B680A431A613B681B68102B03D03B6811
:10319C001B68112B32D17B681B681D4A934225D1C9
:1031AC007B681B689B6803F40003002B26D17B68AB
:1031BC001B689A687B681B6842F400029A603B6843
:1031CC001B68102B1AD1134B1B68134AA2FB032349
:1031DC009A0C13469B0013445B00BB6002E0BB6877
:1031EC00013BBB60BB68002BF9D107E07B689B6A95
:1031FC0043F020027B689A620123FB737B680022F8
:10320C0083F82420FB7B18461437BD4680BC7047DE
:10321C00002401401800002083DE1B4380B584B0DD
:10322C0000AF78600023FB600023BB607B681B68E9
:10323C009B6803F00103012B40D07B681B689A68E4
:10324C007B681B6842F001029A601F4B1B681F4A87
:10325C00A2FB03239B0CBB6002E0BB68013BBB6081
:10326C00BB68002BF9D103F0BDFAF8601FE003F046
:10327C00B9FA0246FB68D31A022B18D97B681B6873
:10328C009B6803F00103012B11D07B689B6A43F010
:10329C0010027B689A627B68DB6A43F001027B68F0
:1032AC00DA627B68002283F82420012307E07B6824
:1032BC001B689B6803F00103012BD8D1002318462F
:1032CC001037BD4680BD00BF1800002083DE1B43B5
:1032DC0080B584B000AF78600023FB607B681B680E
:1032EC009B6803F00103012B2ED17B681B689A6845
:1032FC007B681B6822F001029A6003F073FAF86095
:10330C001BE003F06FFA0246FB68D31A022B14D9A8
:10331C007B681B689B6803F00103012B0DD17B6854
:10332C009B6A43F010027B689A627B68DB6A43F00D
:10333C0001027B68DA62012307E07B681B689B68EB
:10334C0003F00103012BDCD0002318461037BD46D7
:10335C0080BD80B584B000AF78607B685B6AFB6031
:10336C00FB689B6A03F05003002B27D1FB689B6A18
:10337C0043F40072FB689A62FB681B689B6803F459
:10338C006023B3F5602F15D1FB681B7B002B11D18B
:10339C00FB689B6A23F48072FB689A62FB689B6AE9
:1033AC0003F48053002B05D1FB689B6A43F00102A8
:1033BC00FB689A62F868FEF7CBFD04E0FB681B6AB9
:1033CC001B6B7868984700BF1037BD4680BD80B531
:1033DC0084B000AF78607B685B6AFB60F868FFF7CD
:1033EC000AFE00BF1037BD4680BD80B584B000AF6B
:1033FC0078607B685B6AFB60FB689B6A43F0400209
:10340C00FB689A62FB68DB6A43F00402FB68DA62D1
:10341C00F868FFF702FE00BF1037BD4680BD000004
:10342C0080B485B000AF78607B6803F00703FB6065
:10343C000C4BDB68BB60BA684FF6FF031340BB60F4
:10344C00FB681A02BB68134343F0BF6343F40033B9
:10345C00BB60044ABB68D36000BF1437BD4680BC58
:10346C00704700BF00ED00E080B400AF044BDB6898
:10347C001B0A03F007031846BD4680BC704700BF0B
:10348C0000ED00E080B483B000AF0346FB7197F908
:10349C000730002B0BDBFB7903F01F02064997F971
:1034AC0007305B09012000FA02F241F8232000BF2B
:1034BC000C37BD4680BC704700E100E080B483B09F
:1034CC0000AF03463960FB7197F90730002B0ADB1C
:1034DC003B68DAB20C4997F907301201D2B20B44AF
:1034EC0083F800230AE03B68DAB20849FB7903F061
:1034FC000F03043B1201D2B20B441A7600BF0C37F7
:10350C00BD4680BC704700BF00E100E000ED00E06C
:10351C0080B489B000AFF860B9607A60FB6803F0E2
:10352C000703FB61FB69C3F10703042B28BF0423CA
:10353C00BB61FB690433062B02D9FB69033B00E03A
:10354C0000237B614FF0FF32BB6902FA03F3DA43CD
:10355C00BB681A407B699A404FF0FF317B6901FAD6
:10356C0003F3D9437B680B40134318462437BD46FD
:10357C0080BC704780B582B000AF78607B68013B3F
:10358C00B3F1807F01D301230FE00A4A7B68013B32
:10359C0053600F214FF0FF30FFF790FF054B0022D7
:1035AC009A60044B07221A60002318460837BD4660
:1035BC0080BD00BF10E000E080B582B000AF786045
:1035CC007868FFF72DFF00BF0837BD4680BD80B57A
:1035DC0086B000AF0346B9607A60FB7300237B6151
:1035EC00FFF742FF78617A68B9687869FFF790FF56
:1035FC00024697F90F3011461846FFF75FFF00BFE0
:10360C001837BD4680BD80B582B000AF0346FB7154
:10361C0097F907301846FFF735FF00BF0837BD464E
:10362C0080BD80B582B000AF78607868FFF7A2FFEC
:10363C00034618460837BD4680BD000080B485B0EF
:10364C0000AF78600023FB607B68002B01D1012365
:10365C0043E07B681B681A46224B1344224AA2FBA8
:10366C0003231B099A007B681A647B681F4ADA6380
:10367C007B68022283F821207B681B681B68FB6037
:10368C00FB6823F47F5323F03003FB607B685A689C
:10369C007B689B681A437B68DB681A437B681B69F1
:1036AC001A437B685B691A437B689B691A437B6886
:1036BC00DB691343FA681343FB607B681B68FA6889
:1036CC001A607B6800229A637B68012283F82120B0
:1036DC007B68002283F82020002318461437BD464F
:1036EC0080BC7047F8FFFDBFCDCCCCCC00000240B5
:1036FC0080B586B000AFF860B9607A603B6000239B
:10370C00FB75FB6893F82030012B01D102234BE0B1
:10371C00FB68012283F82020FB6893F82130DBB290
:10372C00012B3AD1FB68022283F82120FB6800228E
:10373C009A63FB681B681A68FB681B6822F001021D
:10374C001A603B687A68B968F86800F0EBF9FB68B6
:10375C00DB6A002B08D0FB681B681A68FB681B68C7
:10376C0042F00E021A600FE0FB681B681A68FB68D7
:10377C001B6822F004021A60FB681B681A68FB685D
:10378C001B6842F00A021A60FB681B681A68FB6827
:10379C001B6842F001021A6005E0FB68002283F806
:1037AC0020200223FB75FB7D18461837BD4680BDD3
:1037BC0080B485B000AF78600023FB737B6893F80E
:1037CC002130DBB2022B08D07B6804229A637B6821
:1037DC00002283F82020012320E07B681B681A68F4
:1037EC007B681B6822F00E021A607B681B681A68E3
:1037FC007B681B6822F001021A607B681A6C7B687C
:10380C00DB6B012101FA02F25A607B68012283F81A
:10381C0021207B68002283F82020FB7B184614377C
:10382C00BD4680BC7047000080B584B000AF7860A6
:10383C000023FB737B6893F82130DBB2022B05D09D
:10384C007B6804229A630123FB7351E07B681B683D
:10385C001A687B681B6822F00E021A607B681B6872
:10386C001A687B681B6822F001021A607B681B686F
:10387C00224A934229D07B681B68214A934222D06A
:10388C007B681B681F4A93421AD07B681B681E4AD0
:10389C00934212D07B681B681C4A93420AD07B6807
:1038AC001B681B4A934202D14FF480130EE04FF079
:1038BC0080730BE04FF4803308E04FF4805305E045
:1038CC004FF4807302E0102300E00123114A53608F
:1038DC007B68012283F821207B68002283F820205A
:1038EC007B685B6B002B03D07B685B6B78689847BD
:1038FC00FB7B18461037BD4680BD00BF0800024058
:10390C001C000240300002404400024058000240BB
:10391C006C0002400000024080B584B000AF7860BB
:10392C007B68DB6B1B68FB607B681B681B68BB6080
:10393C007B681B6C04229A40FB681340002B4FD011
:10394C00BB6803F00403002B4AD07B681B681B6820
:10395C0003F02003002B07D17B681B681A687B6877
:10396C001B6822F004021A607B681B68664A93424B
:10397C0029D07B681B68654A934222D07B681B6800
:10398C00634A93421AD07B681B68624A934212D0F6
:10399C007B681B68604A93420AD07B681B685F4A4D
:1039AC00934202D14FF480030EE04FF080630BE0A2
:1039BC004FF4802308E04FF4804305E04FF480631C
:1039CC0002E0402300E00423554A53607B68DB6A25
:1039DC00002B00F094807B68DB6A786898478EE057
:1039EC007B681B6C02229A40FB681340002B56D05C
:1039FC00BB6803F00203002B51D07B681B681B686B
:103A0C0003F02003002B0BD17B681B681A687B68C2
:103A1C001B6822F00A021A607B68012283F82120BD
:103A2C007B681B68384A934229D07B681B68374AED
:103A3C00934222D07B681B68354A93421AD07B682C
:103A4C001B68344A934212D07B681B68324A9342FB
:103A5C000AD07B681B68314A934202D14FF40013A1
:103A6C000EE04FF000730BE04FF4003308E04FF41E
:103A7C00005305E04FF4007302E0202300E0022322
:103A8C00274A53607B68002283F820207B689B6A5E
:103A9C00002B34D07B689B6A786898472FE07B6852
:103AAC001B6C08229A40FB681340002B28D0BB6883
:103ABC0003F00803002B23D07B681B681A687B6813
:103ACC001B6822F00E021A607B681A6C7B68DB6B39
:103ADC00012101FA02F25A607B6801229A637B6829
:103AEC00012283F821207B68002283F820207B6848
:103AFC001B6B002B04D07B681B6B7868984700BF4E
:103B0C0000BF1037BD4680BD080002401C000240BB
:103B1C003000024044000240580002406C00024059
:103B2C000000024080B485B000AFF860B9607A60E4
:103B3C003B60FB681A6CFB68DB6B012101FA02F23B
:103B4C005A60FB681B683A685A60FB685B68102B0C
:103B5C0008D1FB681B687A689A60FB681B68BA68B6
:103B6C00DA6007E0FB681B68BA689A60FB681B6840
:103B7C007A68DA6000BF1437BD4680BC704700001D
:103B8C0080B48BB000AF7860396000237B62002377
:103B9C003B6269E101227B6A02FA03F3FB613B6839
:103BAC001B68FA691340BB61BA69FB699A4240F021
:103BBC0058813B685B689A4A93425ED0984A93421C
:103BCC0075D8984A934258D0964A93426FD8964AE1
:103BDC00934252D0944A934269D8944A93424CD01F
:103BEC00924A934263D8924A934246D0904A934267
:103BFC005DD8122B2AD8122B59D801A252F823F0D7
:103C0C00873C0008613C0008733C0008B53C000888
:103C1C00BB3C0008BB3C0008BB3C0008BB3C00089C
:103C2C00BB3C0008BB3C0008BB3C0008BB3C00088C
:103C3C00BB3C0008BB3C0008BB3C0008BB3C00087C
:103C4C00BB3C0008693C00087D3C0008794A934263
:103C5C0013D02CE03B68DB683B6229E03B68DB68F7
:103C6C0004333B6224E03B68DB6808333B621FE0B3
:103C7C003B68DB680C333B621AE03B689B68002BAB
:103C8C0002D104233B6213E03B689B68012B05D1F6
:103C9C0008233B627B68FA691A6109E008233B62DE
:103CAC007B68FA695A6103E000233B6200E000BFC5
:103CBC00BB69FF2B01D87B6801E07B6804337B6117
:103CCC00BB69FF2B02D87B6A9B0002E07B6A083B36
:103CDC009B003B617B691A680F213B6901FA03F376
:103CEC00DB431A40396A3B6901FA03F31A437B69D7
:103CFC001A603B685B6803F08053002B00F0B180C6
:103D0C004D4B9B694C4A43F0010393614A4B9B69B1
:103D1C0003F00103BB60BB68484A7B6A9B08023313
:103D2C0052F82330FB607B6A03F003039B000F22E5
:103D3C0002FA03F3DB43FA681340FB607B68404AEA
:103D4C00934213D07B683F4A93420DD07B683E4A26
:103D5C00934207D07B683D4A934201D1032306E08E
:103D6C00042304E0022302E0012300E000237A6A2A
:103D7C0002F0030292009340FA681343FB602F4950
:103D8C007B6A9B080233FA6841F823203B685B6826
:103D9C0003F48013002B06D02D4B9A682C49BB6979
:103DAC0013438B6006E02A4B9A68BB69DB432849B6
:103DBC0013408B603B685B6803F40013002B06D048
:103DCC00234BDA682249BB691343CB6006E0204BD6
:103DDC00DA68BB69DB431E491340CB603B685B6808
:103DEC0003F40033002B06D0194B5A681849BB69F1
:103DFC0013434B6006E0164B5A68BB69DB4314490E
:103E0C0013404B603B685B6803F48033002B21D07C
:103E1C000F4B1A680E49BB6913430B6021E000BFBE
:103E2C0000003210000031100000221000002110A0
:103E3C0000001210000011100010024000000140A0
:103E4C0000080140000C014000100140001401402A
:103E5C00000401400B4B1A68BB69DB430949134052
:103E6C000B607B6A01337B623B681A687B6A22FABF
:103E7C0003F3002B7FF48EAE00BF00BF2C37BD4682
:103E8C0080BC70470004014080B483B000AF786000
:103E9C000B467B8013467B707B78002B03D07A8893
:103EAC007B681A6103E07B881A047B681A6100BF87
:103EBC000C37BD4680BC704780B485B000AF7860CD
:103ECC000B467B807B68DB68FB607A88FB68134061
:103EDC001A04FB68D9437B880B401A437B681A6130
:103EEC0000BF1437BD4680BC7047000080B582B05F
:103EFC0000AF0346FB80084B5A69FB881340002B2C
:103F0C0006D0054AFB885361FB881846FEF734F847
:103F1C0000BF0837BD4680BD0004014080B586B0A7
:103F2C0000AF786000233B610023FB607B681B685B
:103F3C0003F00103002B7DD00023FB754F4BDB6995
:103F4C0003F08053002B0DD14C4BDB694B4A43F0F3
:103F5C008053D361494BDB6903F08053BB60BB6872
:103F6C000123FB75464B1B6803F48073002B18D19F
:103F7C00434B1B68424A43F48073136002F032FCDB
:103F8C00386108E002F02EFC02463B69D31A642B20
:103F9C0001D903236DE03A4B1B6803F48073002BAB
:103FAC00F0D0364B1B6A03F44073FB60FB68002BAC
:103FBC002ED07B685B6803F44073FA689A4227D072
:103FCC002E4B1B6A23F44073FB602E4B01221A60AC
:103FDC002C4B00221A60294AFB681362FB6803F021
:103FEC000103002B14D002F0FDFB38610AE002F053
:103FFC00F9FB02463B69D31A41F28832934201D94C
:10400C00032336E01D4B1B6A03F00203002BEED09A
:10401C001A4B1B6A23F440727B685B681749134385
:10402C000B62FB7D012B05D1144BDB69134A23F08A
:10403C008053D3617B681B6803F00203002B08D00C
:10404C000E4B5B6823F440427B689B680B4913431F
:10405C004B607B681B6803F01003002B08D0074BE8
:10406C005B6823F480027B68DB68044913434B6074
:10407C00002318461837BD4680BD00BF0010024013
:10408C00007000404004424280B588B000AF7860B8
:10409C0000237B610023FB6100233B610023FB6059
:1040AC000023BB617B68102B0AD07B68102B00F2BD
:1040BC008A807B68012B45D07B68022B75D082E00F
:1040CC00464B5B68FB60454B1B6803F08073002B11
:1040DC007BD0FB689B0C03F00F03414AD35C3B6124
:1040EC00FB6803F48033002B15D03C4B5B685B0CF6
:1040FC0003F001033B4AD35C7B61FB6803F4803320
:10410C00002B0DD0384A7B69B2FBF3F23B6902FB02
:10411C0003F3FB6104E03B69344A02FB03F3FB61EC
:10412C002E4B5B6803F48003B3F5800F02D1FB695F
:10413C00BB614AE0FB695B002D4AA2FB03235B08D1
:10414C00BB6142E0254B1B6AFB60FB6803F44073C8
:10415C00B3F5807F08D1FB6803F00203002B03D07A
:10416C004FF40043BB611FE0FB6803F44073B3F5ED
:10417C00007F09D1194B5B6A03F00203002B03D0BB
:10418C0049F64043BB610FE0FB6803F44073B3F5A1
:10419C00407F1CD1114B1B6803F40033002B16D04D
:1041AC004FF22443BB6112E011E000F001FC024627
:1041BC000A4B5B689B0B03F0030301335B00B2FB00
:1041CC00F3F3BB6104E000BF02E000BF00E000BFFE
:1041DC00BB6918462037BD4680BD00BF00100240A9
:1041EC00D4680008E468000800127A0000093D0059
:1041FC00ABAAAAAA80B586B000AF78607B68002B0A
:10420C0001D1012372E27B681B6803F00103002BD0
:10421C0000F08780924B5B6803F00C03042B0CD0EE
:10422C008F4B5B6803F00C03082B12D18C4B5B6833
:10423C0003F48033B3F5803F0BD1894B1B6803F437
:10424C000033002B6CD07B685B68002B68D101239A
:10425C004CE27B685B68B3F5803F06D1804B1B68F2
:10426C007F4A43F4803313602EE07B685B68002B3D
:10427C000CD17B4B1B687A4A23F480331360784B48
:10428C001B68774A23F4802313601DE07B685B680E
:10429C00B3F5A02F0CD1724B1B68714A43F48023E9
:1042AC0013606F4B1B686E4A43F4803313600BE052
:1042BC006B4B1B686A4A23F480331360684B1B6892
:1042CC00674A23F4802313607B685B68002B13D050
:1042DC0002F088FA386108E002F084FA02463B6981
:1042EC00D31A642B01D9032300E25D4B1B6803F442
:1042FC000033002BF0D014E002F074FA386108E0BF
:10430C0002F070FA02463B69D31A642B01D90323DD
:10431C00ECE1534B1B6803F40033002BF0D100E0AD
:10432C0000BF7B681B6803F00203002B63D04C4B6F
:10433C005B6803F00C03002B0BD0494B5B6803F05C
:10434C000C03082B1CD1464B5B6803F48033002B09
:10435C0016D1434B1B6803F00203002B05D07B687E
:10436C001B69012B01D00123C0E13D4B1B6823F0DD
:10437C00F8027B685B69DB00394913430B603AE058
:10438C007B681B69002B20D0364B01221A6002F08F
:10439C0029FA386108E002F025FA02463B69D31A83
:1043AC00022B01D90323A1E12D4B1B6803F002035F
:1043BC00002BF0D02A4B1B6823F0F8027B685B695A
:1043CC00DB00274913430B6015E0264B00221A60D3
:1043DC0002F008FA386108E002F004FA02463B6980
:1043EC00D31A022B01D9032380E11D4B1B6803F068
:1043FC000203002BF0D17B681B6803F00803002B31
:10440C003AD07B689B69002B19D0174B01221A609C
:10441C0002F0E8F9386108E002F0E4F902463B6981
:10442C00D31A022B01D9032360E10D4B5B6A03F015
:10443C000203002BF0D0012000F0CEFA1CE00A4B56
:10444C0000221A6002F0CEF938610FE002F0CAF9CE
:10445C0002463B69D31A022B08D9032346E100BF5D
:10446C00001002400000424280044242924B5B6AC0
:10447C0003F00203002BE9D17B681B6803F00403F3
:10448C00002B00F0A6800023FB758B4BDB6903F03F
:10449C008053002B0DD1884BDB69874A43F0805346
:1044AC00D361854BDB6903F08053BB60BB68012390
:1044BC00FB75824B1B6803F48073002B18D17F4B68
:1044CC001B687E4A43F48073136002F08BF93861E9
:1044DC0008E002F087F902463B69D31A642B01D934
:1044EC00032303E1754B1B6803F48073002BF0D09E
:1044FC007B68DB68012B06D16F4B1B6A6E4A43F05D
:10450C00010313622DE07B68DB68002B0CD16A4B36
:10451C001B6A694A23F001031362674B1B6A664AE4
:10452C0023F0040313621CE07B68DB68052B0CD1C1
:10453C00614B1B6A604A43F0040313625E4B1B6AB7
:10454C005D4A43F0010313620BE05B4B1B6A5A4A52
:10455C0023F001031362584B1B6A574A23F00403E0
:10456C0013627B68DB68002B15D002F03BF93861D5
:10457C000AE002F037F902463B69D31A41F288325D
:10458C00934201D90323B1E04B4B1B6A03F00203A6
:10459C00002BEED014E002F025F938610AE002F0AD
:1045AC0021F902463B69D31A41F28832934201D970
:1045BC0003239BE0404B1B6A03F00203002BEED15C
:1045CC00FB7D012B05D13C4BDB693B4A23F080532F
:1045DC00D3617B68DB69002B00F08780364B5B680E
:1045EC0003F00C03082B61D07B68DB69022B46D1EE
:1045FC00334B00221A6002F0F5F8386108E002F043
:10460C00F1F802463B69D31A022B01D903236DE062
:10461C00294B1B6803F00073002BF0D17B681B6ADD
:10462C00B3F5803F08D1244B5B6823F400327B68E0
:10463C009B68214913434B601F4B5B6823F4741236
:10464C007B68196A7B685B6A0B431B4913434B609D
:10465C001B4B01221A6002F0C5F8386108E002F029
:10466C00C1F802463B69D31A022B01D903233DE062
:10467C00114B1B6803F00073002BF0D035E0104B8E
:10468C0000221A6002F0AEF8386108E002F0AAF8D5
:10469C0002463B69D31A022B01D9032326E0064BB1
:1046AC001B6803F00073002BF0D11EE07B68DB6904
:1046BC00012B07D1012319E00010024000700040CB
:1046CC00600042420B4B5B68FB60FB6803F480327A
:1046DC007B681B6A9A4206D1FB6803F470127B68F4
:1046EC005B6A9A4201D0012300E000231846183778
:1046FC00BD4680BD0010024080B584B000AF78602C
:10470C0039607B68002B01D10123D0E06A4B1B6818
:10471C0003F007033A689A4210D9674B1B6823F0E1
:10472C00070265493B6813430B60634B1B6803F03E
:10473C0007033A689A4201D00123B8E07B681B68F2
:10474C0003F00203002B20D07B681B6803F00403EA
:10475C00002B05D0594B5B68584A43F4E063536017
:10476C007B681B6803F00803002B05D0534B5B6878
:10477C00524A43F460535360504B5B6823F0F00291
:10478C007B689B684D4913434B607B681B6803F047
:10479C000103002B40D07B685B68012B07D1474B92
:1047AC001B6803F40033002B15D101237FE07B68D9
:1047BC005B68022B07D1414B1B6803F00073002B85
:1047CC0009D1012373E03D4B1B6803F00203002B5E
:1047DC0001D101236BE0394B5B6823F003027B684A
:1047EC005B68364913434B6001F0FCFFF8600AE04C
:1047FC0001F0F8FF0246FB68D31A41F2883293426B
:10480C0001D9032353E02D4B5B6803F00C027B684A
:10481C005B689B009A42EBD1274B1B6803F00703A4
:10482C003A689A4210D2244B1B6823F007022249A3
:10483C003B6813430B60204B1B6803F007033A687B
:10484C009A4201D0012332E07B681B6803F0040319
:10485C00002B08D0194B5B6823F4E0627B68DB68A3
:10486C00164913434B607B681B6803F00803002B4D
:10487C0009D0124B5B6823F460527B681B69DB0028
:10488C000E4913434B6000F021F802460B4B5B685A
:10489C001B0903F00F030A49CB5C22FA03F3094A04
:1048AC001360094B1B68184601F05AFF0023184689
:1048BC001037BD4680BD00BF0020024000100240F2
:1048CC00BC680008180000201C00002080B487B0D1
:1048DC0000AF0023FB600023BB6000237B6100233F
:1048EC007B6000233B611E4B5B68FB60FB6803F045
:1048FC000C03042B02D0082B03D027E0194B3B618F
:10490C0027E0FB689B0C03F00F03174AD35C7B601A
:10491C00FB6803F48033002B10D0114B5B685B0CED
:10492C0003F00103114AD35CBB607B680D4A03FBA7
:10493C0002F2BB68B2FBF3F37B6104E07B680C4AC8
:10494C0002FB03F37B617B693B6102E0054B3B613E
:10495C0000BF3B6918461C37BD4680BC704700BF82
:10496C000010024000127A00E8680008F86800089D
:10497C0000093D0080B400AF024B1B681846BD46D1
:10498C0080BC70471800002080B500AFFFF7F2FF25
:10499C000246054B5B681B0A03F007030349CB5C1B
:1049AC0022FA03F3184680BD00100240CC680008C0
:1049BC0080B500AFFFF7DEFF0246054B5B68DB0AF4
:1049CC0003F007030349CB5C22FA03F3184680BDBE
:1049DC0000100240CC68000880B485B000AF78604D
:1049EC000A4B1B680A4AA2FB03235B0A7A6802FB88
:1049FC0003F3FB6000BFFB685A1EFA60002BF9D171
:104A0C0000BF00BF1437BD4680BC704718000020A3
:104A1C00D34D621080B582B000AF78607B68002BFC
:104A2C0001D1012376E07B685B6A002B08D17B689F
:104A3C005B68B3F5827F09D07B680022DA6105E000
:104A4C007B6800221A617B6800225A617B68002215
:104A5C009A627B6893F85130DBB2002B06D17B68ED
:104A6C00002283F850207868FDF7C2FC7B68022294
:104A7C0083F851207B681B681A687B681B6822F0DE
:104A8C0040021A607B685B6803F482727B689B68E7
:104A9C0003F404431A437B68DB6803F400631A4392
:104AAC007B681B6903F002031A437B685B6903F0A4
:104ABC0001031A437B689B6903F400731A437B68F8
:104ACC00DB6903F038031A437B681B6A03F080032D
:104ADC0042EA03017B689B6A03F400527B681B6803
:104AEC000A431A607B689B691A0C7B681B6802F08E
:104AFC0004025A607B681B68DA697B681B6822F4C5
:104B0C000062DA617B6800225A657B68012283F8B7
:104B1C005120002318460837BD4680BD80B588B0AB
:104B2C0000AF78607B681B685B68FB617B681B6807
:104B3C009B68BB61BB6903F04003002B0ED1BB69C2
:104B4C0003F00103002B09D0FB6903F04003002B99
:104B5C0004D07B681B6C78689847B7E0BB6903F09E
:104B6C000203002B09D0FB6903F08003002B04D057
:104B7C007B685B6C78689847A8E0BB6903F02003FE
:104B8C00002B05D1BB6903F04003002B00F09E8085
:104B9C00FB6903F02003002B00F09880BB6903F045
:104BAC004003002B23D07B6893F85130DBB2032BEE
:104BBC0011D07B685B6D43F004027B685A6500235F
:104BCC007B617B681B68DB687B617B681B689B680F
:104BDC007B617B690BE000233B617B681B68DB68B6
:104BEC003B617B681B689B683B613B696EE0BB6902
:104BFC0003F02003002B14D07B685B6D43F00102A3
:104C0C007B685A650023FB607B681B689B68FB60B4
:104C1C007B681B681A687B681B6822F040021A606C
:104C2C00FB687B685B6D002B4FD07B681B685A68F8
:104C3C007B681B6822F0E0025A607B68012283F8D3
:104C4C005120FB6903F00203002B04D1FB6903F034
:104C5C000103002B34D07B681B685A687B681B6887
:104C6C0022F003025A607B68DB6C002B11D07B684E
:104C7C00DB6C184A5A637B68DB6C1846FEF7D4FD74
:104C8C000346002B05D07B685B6D43F040027B68CC
:104C9C005A657B689B6C002B16D07B689B6C0D4A0D
:104CAC005A637B689B6C1846FEF7BEFD0346002BCF
:104CBC000AD07B685B6D43F040027B685A6503E069
:104CCC00786800F009F800E000BF00BF2037BD464F
:104CDC0080BD00BFF74C000880B483B000AF786093
:104CEC0000BF0C37BD4680BC704780B584B000AFA8
:104CFC0078607B685B6AFB60FB680022DA87FB6884
:104D0C000022DA86F868FFF7E7FF00BF1037BD46D0
:104D1C0080BD000080B485B000AF786039607B68DE
:104D2C0093F83C30012B01D1022346E07B68012231
:104D3C0083F83C207B68022283F83D207B681B684B
:104D4C005B68FB607B681B689B68BB60FB6823F03F
:104D5C007003FB603B681B68FA681343FB607B685D
:104D6C001B68FA685A607B681B68164A93420ED01F
:104D7C007B681B68B3F1804F09D07B681B68124AB3
:104D8C00934204D07B681B68104A93420CD1BB68D9
:104D9C0023F08003BB603B685B68BA681343BB605D
:104DAC007B681B68BA689A607B68012283F83D2097
:104DBC007B68002283F83C20002318461437BD463C
:104DCC0080BC7047002C01400004004000080040EB
:104DDC0080B483B000AF786000BF0C37BD4680BC98
:104DEC00704780B483B000AF786000BF0C37BD460D
:104DFC0080BC704780B582B000AF78607B68002BB8
:104E0C0001D1012341E07B6893F83D30DBB2002BEC
:104E1C0006D17B68002283F83C207868FDF774FC8F
:104E2C007B68022283F83D207B681A687B68043318
:104E3C001946104600F028FC7B68012283F84620B6
:104E4C007B68012283F83E207B68012283F83F2097
:104E5C007B68012283F840207B68012283F8412083
:104E6C007B68012283F842207B68012283F843206F
:104E7C007B68012283F844207B68012283F845205B
:104E8C007B68012283F83D20002318460837BD4675
:104E9C0080BD000080B485B000AF78607B6893F86B
:104EAC003D30DBB2012B01D0012332E07B680222C2
:104EBC0083F83D207B681B68184A93420ED07B68B0
:104ECC001B68B3F1804F09D07B681B68144A93426E
:104EDC0004D07B681B68134A934211D17B681B6812
:104EEC009B6803F00703FB60FB68062B10D07B6804
:104EFC001B681A687B681B6842F001021A6007E0A5
:104F0C007B681B681A687B681B6842F001021A6098
:104F1C00002318461437BD4680BC7047002C014056
:104F2C00000400400008004080B582B000AF7860FB
:104F3C007B68002B01D1012341E07B6893F83D3065
:104F4C00DBB2002B06D17B68002283F83C2078680A
:104F5C0000F039F87B68022283F83D207B681A68E0
:104F6C007B6804331946104600F08EFB7B680122E7
:104F7C0083F846207B68012283F83E207B6801225F
:104F8C0083F83F207B68012283F840207B68012254
:104F9C0083F841207B68012283F842207B68012240
:104FAC0083F843207B68012283F844207B6801222C
:104FBC0083F845207B68012283F83D2000231846A6
:104FCC000837BD4680BD80B483B000AF786000BFA9
:104FDC000C37BD4680BC704780B584B000AF78609C
:104FEC0039603B68002B09D17B6893F83E30DBB20B
:104FFC00012B14BF01230023DBB222E03B68042BFE
:10500C0009D17B6893F83F30DBB2012B14BF01232D
:10501C000023DBB215E03B68082B09D17B6893F8C1
:10502C004030DBB2012B14BF01230023DBB208E0BC
:10503C007B6893F84130DBB2012B14BF01230023B2
:10504C00DBB2002B01D001235EE03B68002B04D1C6
:10505C007B68022283F83E2013E03B68042B04D1CA
:10506C007B68022283F83F200BE03B68082B04D1BD
:10507C007B68022283F8402003E07B68022283F8DD
:10508C0041207B681B6801223968184600F07CFDC2
:10509C007B681B681E4A934207D17B681B685A6C5D
:1050AC007B681B6842F400425A647B681B68184A90
:1050BC0093420ED07B681B68B3F1804F09D07B689C
:1050CC001B68144A934204D07B681B68124A9342B3
:1050DC0011D17B681B689B6803F00703FB60FB68BE
:1050EC00062B10D07B681B681A687B681B6842F023
:1050FC0001021A6007E07B681B681A687B681B68F2
:10510C0042F001021A60002318461037BD4680BDDC
:10511C00002C0140000400400008004080B582B023
:10512C0000AF78607B681B681B6903F00203022BDD
:10513C0022D17B681B68DB6803F00203022B1BD1B6
:10514C007B681B686FF002021A617B6801221A7778
:10515C007B681B689B6903F00303002B03D0786802
:10516C0000F076FA05E0786800F069FA786800F0EB
:10517C0078FA7B6800221A777B681B681B6903F03E
:10518C000403042B22D17B681B68DB6803F0040347
:10519C00042B1BD17B681B686FF004021A617B68BF
:1051AC0002221A777B681B689B6903F44073002BFF
:1051BC0003D0786800F04CFA05E0786800F03FFA0C
:1051CC00786800F04EFA7B6800221A777B681B68BF
:1051DC001B6903F00803082B22D17B681B68DB6872
:1051EC0003F00803082B1BD17B681B686FF00802C7
:1051FC001A617B6804221A777B681B68DB6903F0F1
:10520C000303002B03D0786800F022FA05E07868DD
:10521C0000F015FA786800F024FA7B6800221A77FF
:10522C007B681B681B6903F01003102B22D17B6871
:10523C001B68DB6803F01003102B1BD17B681B6809
:10524C006FF010021A617B6808221A777B681B6862
:10525C00DB6903F44073002B03D0786800F0F8F995
:10526C0005E0786800F0EBF9786800F0FAF97B68F3
:10527C0000221A777B681B681B6903F00103012B62
:10528C000ED17B681B68DB6803F00103012B07D18F
:10529C007B681B686FF001021A617868FCF7D6FE18
:1052AC007B681B681B6903F08003802B0ED17B6825
:1052BC001B68DB6803F08003802B07D17B681B68BD
:1052CC006FF080021A617868FFF78BFD7B681B68B2
:1052DC001B6903F04003402B0ED17B681B68DB6815
:1052EC0003F04003402B07D17B681B686FF0400232
:1052FC001A61786800F0BEF97B681B681B6903F0C3
:10530C002003202B0ED17B681B68DB6803F0200385
:10531C00202B07D17B681B686FF020021A6178681C
:10532C00FFF756FD00BF0837BD4680BD80B586B07F
:10533C0000AFF860B9607A600023FB75FB6893F8E6
:10534C003C30012B01D10223AEE0FB68012283F833
:10535C003C207B680C2B00F29F8001A252F823F0BA
:10536C00A1530008A5540008A5540008A554000832
:10537C00E1530008A5540008A5540008A5540008E2
:10538C0023540008A5540008A5540008A55400088F
:10539C0063540008FB681B68B968184600F0D6F91E
:1053AC00FB681B689A69FB681B6842F008029A61EB
:1053BC00FB681B689A69FB681B6822F004029A61FF
:1053CC00FB681B689969BB681A69FB681B680A4310
:1053DC009A6164E0FB681B68B968184600F01CFA17
:1053EC00FB681B689A69FB681B6842F400629A614F
:1053FC00FB681B689A69FB681B6822F480629A61DF
:10540C00FB681B689969BB681B691A02FB681B68FF
:10541C000A439A6143E0FB681B68B968184600F0C0
:10542C0065FAFB681B68DA69FB681B6842F00802C6
:10543C00DA61FB681B68DA69FB681B6822F00402FE
:10544C00DA61FB681B68D969BB681A69FB681B6861
:10545C000A43DA6123E0FB681B68B968184600F060
:10546C00AFFAFB681B68DA69FB681B6842F40062E0
:10547C00DA61FB681B68DA69FB681B6822F48062DE
:10548C00DA61FB681B68D969BB681B691A02FB6887
:10549C001B680A43DA6102E00123FB7500BFFB685D
:1054AC00002283F83C20FB7D18461837BD4680BD92
:1054BC0080B584B000AF786039600023FB737B68E3
:1054CC0093F83C30012B01D10223B4E07B6801221C
:1054DC0083F83C207B68022283F83D207B681B68A4
:1054EC009B68BB60BB6823F07703BB60BB6823F48D
:1054FC007F43BB607B681B68BA689A603B681B681B
:10550C00B3F5005F3ED0B3F5005F00F28780B3F5D2
:10551C00805F00F08680B3F5805F7FD8702B1AD047
:10552C00702B7BD8602B50D0602B77D8502B3CD075
:10553C00502B73D8402B58D0402B6FD8302B64D0C5
:10554C00302B6BD8202B60D0202B67D8002B5CD055
:10555C00102B5AD062E07B6818683B6899683B68EE
:10556C005A683B68DB6800F0F0FA7B681B689B6844
:10557C00BB60BB6843F07703BB607B681B68BA6891
:10558C009A604FE07B6818683B6899683B685A687A
:10559C003B68DB6800F0D9FA7B681B689A687B680B
:1055AC001B6842F480429A603CE07B6818683B6858
:1055BC0059683B68DB681A4600F050FA7B681B6838
:1055CC005021184600F0A7FA2CE07B6818683B685D
:1055DC0059683B68DB681A4600F06EFA7B681B68FA
:1055EC006021184600F097FA1CE07B6818683B684D
:1055FC0059683B68DB681A4600F030FA7B681B6818
:10560C004021184600F087FA0CE07B681A683B686A
:10561C001B681946104600F07EFA03E00123FB7369
:10562C0000E000BF7B68012283F83D207B680022EC
:10563C0083F83C20FB7B18461037BD4680BD80B4F8
:10564C0083B000AF786000BF0C37BD4680BC70479C
:10565C0080B483B000AF786000BF0C37BD4680BC0F
:10566C00704780B483B000AF786000BF0C37BD4684
:10567C0080BC704780B483B000AF786000BF0C373B
:10568C00BD4680BC7047000080B485B000AF786028
:10569C0039607B681B68FB607B68294A93420BD09E
:1056AC007B68B3F1804F07D07B68264A934203D0C6
:1056BC007B68254A934208D1FB6823F07003FB609A
:1056CC003B685B68FA681343FB607B681C4A934237
:1056DC000BD07B68B3F1804F07D07B68194A93429B
:1056EC0003D07B68184A934208D1FB6823F44073BB
:1056FC00FB603B68DB68FA681343FB60FB6823F0D4
:10570C0080023B685B691343FB607B68FA681A6034
:10571C003B689A687B68DA623B681A687B689A62B5
:10572C007B68074A934203D13B681A697B681A630A
:10573C007B6801225A6100BF1437BD4680BC70479C
:10574C00002C0140000400400008004080B487B0E9
:10575C0000AF786039607B681B6A7B617B681B6A71
:10576C0023F001027B681A627B685B683B617B6893
:10577C009B69FB60FB6823F07003FB60FB6823F004
:10578C000303FB603B681B68FA681343FB607B698F
:10579C0023F002037B613B689B687A6913437B614E
:1057AC007B681C4A93420CD17B6923F008037B6114
:1057BC003B68DB687A6913437B617B6923F00403E4
:1057CC007B617B68134A934211D13B6923F480734C
:1057DC003B613B6923F400733B613B685B693A694D
:1057EC0013433B613B689B693A6913433B617B689C
:1057FC003A695A607B68FA689A613B685A687B68B8
:10580C005A637B687A691A6200BF1C37BD4680BC3C
:10581C00704700BF002C014080B487B000AF7860A7
:10582C0039607B681B6A7B617B681B6A23F0100202
:10583C007B681A627B685B683B617B689B69FB6079
:10584C00FB6823F4E043FB60FB6823F44073FB60CC
:10585C003B681B681B02FA681343FB607B6923F0EF
:10586C0020037B613B689B681B017A6913437B6156
:10587C007B681D4A93420DD17B6923F080037B61C9
:10588C003B68DB681B017A6913437B617B6923F0FE
:10589C0040037B617B68144A934213D13B6923F428
:1058AC0080633B613B6923F400633B613B685B694C
:1058BC009B003A6913433B613B689B699B003A69C7
:1058CC0013433B617B683A695A607B68FA689A615A
:1058DC003B685A687B689A637B687A691A6200BF76
:1058EC001C37BD4680BC7047002C014080B487B08B
:1058FC0000AF786039607B681B6A7B617B681B6AD0
:10590C0023F480727B681A627B685B683B617B68FE
:10591C00DB69FB60FB6823F07003FB60FB6823F022
:10592C000303FB603B681B68FA681343FB607B69ED
:10593C0023F400737B613B689B681B027A691343F9
:10594C007B617B681D4A93420DD17B6923F4006314
:10595C007B613B68DB681B027A6913437B617B6963
:10596C0023F480637B617B68144A934213D13B69B7
:10597C0023F480533B613B6923F400533B613B6848
:10598C005B691B013A6913433B613B689B691B01D3
:10599C003A6913433B617B683A695A607B68FA68E1
:1059AC00DA613B685A687B68DA637B687A691A62E9
:1059BC0000BF1C37BD4680BC704700BF002C0140A7
:1059CC0080B487B000AF786039607B681B6A3B613C
:1059DC007B681B6A23F480527B681A627B685B6865
:1059EC007B617B68DB69FB60FB6823F4E043FB6055
:1059FC00FB6823F44073FB603B681B681B02FA686E
:105A0C001343FB603B6923F400533B613B689B6889
:105A1C001B033A6913433B617B680F4A934209D1DC
:105A2C007B6923F480437B613B685B699B017A69EA
:105A3C0013437B617B687A695A607B68FA68DA6128
:105A4C003B685A687B681A647B683A691A6200BFC3
:105A5C001C37BD4680BC7047002C014080B487B019
:105A6C0000AFF860B9607A60FB681B6A7B61FB6809
:105A7C001B6A23F00102FB681A62FB689B693B619D
:105A8C003B6923F0F0033B617B681B013A691343CC
:105A9C003B617B6923F00A037B617A69BB68134322
:105AAC007B61FB683A699A61FB687A691A6200BF8C
:105ABC001C37BD4680BC704780B487B000AFF8601F
:105ACC00B9607A60FB681B6A7B61FB681B6A23F018
